:020000040000FA
:100000000C941B040C9443040C9443040C9443047C
:100010000C9443040C9443040C9443040C94430444
:100020000C9443040C9443040C9443040C94DB148C
:100030000C9443040C94A9140C9483140C9443045E
:100040000C9443040C9443040C9443040C94251521
:100050000C9443043110FD2152FDCDC6FECD3EFF70
:10006000CDF4FD3EFFBC2010BD200D21D9FDCDC635
:10007000FE2188FDCDC6FE76E521D9FDCDC6FE2147
:1000800075FDCDC6FEE1CD4BFFCD3EFFCD3EFFDB86
:1000900001FEFF20FAE9694C6F6164202D20496E52
:1000A00074656C2D486578204C6F61646572202DF5
:1000B0002053323030373138005374617274696EB6
:1000C0006720416464726573733A20004C6F616409
:1000D000206572726F72202D2053797374656D20C4
:1000E00068616C7465640057616974696E67206942
:1000F0006E7075742073747265616D2E2E2E0053B0
:10010000796E746178206572726F72210043686540
:10011000636B73756D206572726F722100694C6F2D
:1001200061643A2000416464726573732076696F7C
:100130006C6174696F6E2100F5D5C501FFFF21A3C5
:10014000FDCDC6FECD3EFFCD72FFFE0D28F9FE0AA5
:1001500028F5FE2028F1CD1AFFCD69FFFE3AC2A393
:10016000FECDE1FE571E00CDBEFECDD6FE3EFFB851
:100170002005B92002444D7CCDBEFE7DCDBEFECD16
:10018000E1FECDBEFEFE01201ECDE1FECDBEFE7B1A
:10019000A72866CD3EFF21D9FDCDC6FE21C9FDCDE4
:1001A000C6FE01FFFF18527AA7282CCDE1FECDBE76
:1001B000FEE5C5A701F0FCED42C1E1DA8EFECD3EC1
:1001C000FF21D9FDCDC6FE21E1FDCDC6FE01FFFF19
:1001D000182777231518D0CDE1FECDBEFE7BA720D2
:1001E000B2CD3EFFC303FECD3EFF21D9FDCDC6FEFD
:1001F00021BBFDCDC6FE01FFFFCD3EFF6069C1D131
:10020000F1C9C54F7B915F79C1C9F5E57EFE002834
:1002100006CD69FF2318F5E1F1C9F5CDE1FE67CD03
:10022000E1FE6FF1C9C5CDF4FECB07CB07CB07CB01
:100230000747CDF4FEB0C1C9CD72FFCD1AFFCD0680
:10024000FF30F5CD23FFCD2EFFC9FE47D0FE303065
:10025000023FC9FE3AD8FE4130023FC937C9FE61AC
:10026000D8FE7BD0E65FC9FE3A3802D607D630E624
:100270000FC9F5E60FC630FE3A3802C607CD69FF52
:10028000F1C9F53E0DCD69FF3E0ACD69FFF1C9E523
:10029000F57CCD58FF7DCD58FFF1E1C9F5C5470F7D
:1002A0000F0F0FCD2EFF78CD2EFFC1F1C9F53E0106
:1002B000D301F1D300C9DB01FEFFCA72FFC9494F68
:1002C000533A20436865636B20534420616E642079
:1002D00070726573732061206B657920746F207272
:1002E00065706561740D0A00202D2046696C653AC1
:1002F0002000206F7065726174696F6E0052454115
:1003000044004F50454E004D4F554E5400206F6EE7
:100310002000554E4B4E4F574E004E4F5F46494CB6
:100320004553595354454D004E4F545F454E41423D
:100330004C4544004E4F545F4F50454E4544004E8F
:100340004F5F46494C45004E4F545F52454144591A
:10035000004449534B5F455252000D0A494F533AEE
:10036000205344206572726F72200000003A0037FB
:10037000003400310000003B00380035003200003E
:10038000003900360033003000020202020202028D
:100390000204040404040404040303030303030326
:1003A00003010101010101010101020408102040C3
:1003B000800102040810204080010204081020403F
:1003C00080010204081020408000000002000000AC
:1003D000000000000005040007000000000000000D
:1003E000000000000000000000494F533A20525422
:1003F000432073657420617420636F6D70696C6550
:100400002074696D65202D204E6F773A2000293FBA
:10041000205B592F4E5D203E000A446F20796F7596
:100420002077616E74207365742052544320617488
:1004300020494F5320636F6D70696C652074696D3E
:1004400065202800494F533A2052544320636C6F73
:10045000636B206661696C7572652100494F533A80
:1004600020525443204453333233312074656D702D
:10047000657261747572652073656E736F723A2070
:1004800000494F533A20466F756E64205254432002
:10049000445333323331204D6F64756C652028002E
:1004A0000D0A507265737320435220746F2061638C
:1004B000636570742C2045534320746F2065786900
:1004C00074206F7220616E79206F74686572206B82
:1004D000657920746F206368616E676500494F53CA
:1004E0003A2052544320646174652F74696D65200D
:1004F00075706461746564202800202E2E2E646F50
:100500006E652020202020200A005365636F6E64F2
:1005100073202D3E20004D696E75746573202D3E4D
:100520002000486F757273202D3E200020446179B1
:10053000202D3E20002020202020202020202020B0
:100540002020004D6F6E7468202D3E20005965619B
:1005500072202D3E200020000A50726573732054D3
:100560002F5520746F20696E6372656D656E7420FF
:100570002B31302F2B31206F7220435220746F208B
:10058000616363657074000A494F533A20525443C3
:10059000206D616E75616C2073657474696E673A65
:1005A00000494F533A205A38302069732072756ED3
:1005B0006E696E672066726F6D206E6F77002044E3
:1005C0006F6E6500494F533A204C6F6164696E67E6
:1005D00020626F6F742070726F6772616D2E2E2EA5
:1005E00000292E2E2E00494F533A204C6F6164692A
:1005F0006E6720626F6F742070726F6772616D201A
:1006000028005400494F533A2043757272656E7446
:1006100020004368616E67656420737065656420BF
:1006200077696C6C206265206566666563746976BF
:1006300065206166746572206E65787420726562EB
:100640006F6F74210D0A0A002020200D000D202D4F
:100650003E0020202020202020202020202020209C
:100660002020200D000D202D3E0020204F6B004546
:100670006E74657220796F75722063686F69636547
:10068000203E0020393A2053657420525443207490
:10069000696D652F646174650020383A2053657474
:1006A0002073657269616C20706F7274207370655D
:1006B00065642028004F46460020373A20546F6773
:1006C000676C652043502F4D204175746F657865C8
:1006D0006320282D3E004D487A290020363A2043D9
:1006E00068616E6765205A383020636C6F636B20D9
:1006F000737065656420282D3E0020353A20694CD2
:100700006F6164000D0A20343A204175746F626F86
:100710006F740020333A204C6F61642F736574202E
:100720004F53200020323A20466F72746800203107
:100730003A2042617369630020303A204E6F206393
:1007400068616E6765202800494F533A2053656CF5
:1007500065637420626F6F74206D6F6465206F72C3
:100760002073797374656D20706172616D65746555
:1007700072733A004F4646004F4E00494F533A209D
:1007800043502F4D204175746F6578656320697300
:100790002000494F533A20466F756E6420475045FC
:1007A000204F7074696F6E004D487A00494F533A7C
:1007B000205A383020636C6F636B2073657420613E
:1007C0007420000D0A0A5A38302D4D424332202D34
:1007D00020413034303631380D0A494F53202D2016
:1007E000492F4F2053756273797374656D202D20E6
:1007F000533232303731382D523239303832330DAE
:100800000A000D0A0A494F533A204261756420726A
:1008100065636F7665727920646F6E65202D205058
:100820006C65617365207265626F6F74206E6F779F
:1008300021009D16C42411241FBECFE5D8E0DEBFE1
:10084000CDBF23E0A0E7B1E001C01D92AB36B207F7
:10085000E1F711E0A0E6B0E0E2E4FFE402C00590B9
:100860000D92A037B107D9F714E0CAE1D4E004C073
:100870002197FE010E949C25C931D107C9F70E942A
:1008800002170C9494270C9400009091540281E07C
:10089000913208F040C0809130028111FCCF8091EC
:1008A000530222E02093300221E020932F022FEF09
:1008B00020932E0223E332E030932D0220932C026A
:1008C00010922B0290932A021092290290912902F1
:1008D000880F892B8093290280912802813011F59D
:1008E000109228028091290283B906B603FCFACF40
:1008F00085EC86BF809130028230E1F380912E0238
:100900008F3F91F080912E02803281F080912E02F3
:10091000803371F084E010923202109254021092EF
:100920003102089585EEE5CF80E0F5CF82E0F3CF88
:1009300083E0F1CF91E090933102809353021092C3
:100940003202109254020895909124028091230261
:100950002FEF3FEF981748F4E92FF0E0ED5FFD4FE0
:10096000208130E09F5F90932402C9010895909107
:100970002402809123022FEF3FEF981748F4E92FCC
:10098000F0E0ED5FFD4F208130E09F5F9093240207
:10099000C90108952091530330915403821793079E
:1009A00060F420914F03309150032115310529F057
:1009B000280F391FF9018081089580E00895089576
:1009C0000895AF92BF92CF92DF92EF92FF920F9372
:1009D0001F93CF93DF936C017B018B01040F151FD5
:1009E000EB015E01AE18BF08C017D10759F069913D
:1009F000D601ED91FC910190F081E02DC6010995A1
:100A0000892B79F7C501DF91CF911F910F91FF904D
:100A1000EF90DF90CF90BF90AF900895FC01538D81
:100A2000448D252F30E0842F90E0821B930B5417C8
:100A300010F0CF96089501970895FC01918D828D55
:100A4000981761F0A28DAE0FBF2FB11D5D968C91EE
:100A5000928D9F5F9F73928F90E008958FEF9FEF2D
:100A60000895FC01918D828D981731F0828DE80FE9
:100A7000F11D858D90E008958FEF9FEF0895FC01A3
:100A8000918D228D892F90E0805C9F4F821B910970
:100A90008F739927089586EA92E00E943F0521E02E
:100AA000892B09F420E0822F0895FC01A48DA80F62
:100AB000B92FB11DA35ABF4F2C91848D90E00196A0
:100AC0008F739927848FA689B7892C93A089B189C0
:100AD0008C9182748C93938D848D981306C00288B8
:100AE000F389E02D80818F7D80830895EF92FF92BE
:100AF0000F931F93CF93DF93EC0181E0888F9B8D41
:100B00008C8D981319C0E889F989808185FF14C0FC
:100B10009FB7F894EE89FF896083E889F98980811D
:100B2000827480839FBF81E090E0DF91CF911F911D
:100B30000F91FF90EF900895F62E0B8D10E00F5F50
:100B40001F4F0F731127E02E8C8D8E110CC00FB626
:100B500007FCFACFE889F989808185FFF5CFCE01BE
:100B60000E945505F1CFEB8DEC0FFD2FF11DE35ADF
:100B7000FF4FF0829FB7F8940B8FEA89FB89808141
:100B80008062CFCF0F931F93CF93DF938C01D0E080
:100B9000C0E0F801EC0FFD1F6491662341F086EA86
:100BA00092E00E947605892B11F02196F2CFCE01BA
:100BB000DF91CF911F910F910895CF93DF93EC01B7
:100BC000888D8823B9F0AA89BB89E889F9898C9135
:100BD00085FD03C0808186FD0DC00FB607FCF7CFF1
:100BE0008C9185FFF2CF808185FFEDCFCE010E94F1
:100BF0005505E9CFDF91CF910895843059F028F45D
:100C0000813099F0823089F00895853039F087304D
:100C100041F008958FB58F778FBD08958FB58F7D83
:100C2000FBCF85B58F7D85BD089583B78F7D83BF4D
:100C30000895CF93DF93282F30E0F901E753FC4F5D
:100C40008491F901E755FC4FD491F901E757FC4F26
:100C5000C491CC23A1F081110E94FD05EC2FF0E09E
:100C6000EE0FFF1FE158FC4FA591B491EC91ED23DD
:100C700081E090E009F480E0DF91CF91089580E079
:100C800090E0FACF1F93CF93DF93282F30E0F90144
:100C9000E753FC4F8491F901E755FC4FD491F901DA
:100CA000E757FC4FC491CC23A9F0162F81110E9465
:100CB000FD05EC2FF0E0EE0FFF1FEB58FC4FA59168
:100CC000B4918FB7F894EC91111108C0D095DE2340
:100CD000DC938FBFDF91CF911F910895DE2BF8CF6A
:100CE00010922402109223021092320210925402A7
:100CF0001092300281E080932F021092280261E06E
:100D000081E10E94420661E080E10E94420608986B
:100D1000099888E480B985E486BF8FED94E09093CC
:100D2000FE018093FD0180EE94E09093FC0180939E
:100D3000FB010895CF93DF9390E0FC01E755FC4F52
:100D4000249187579C4FFC0184918823C9F090E03F
:100D5000880F991FFC01E559FC4FA591B491FC0146
:100D6000EB58FC4FC591D49161110DC09FB7F89419
:100D70008C91209582238C938881282328839FBF80
:100D8000DF91CF910895623051F49FB7F8943C9170
:100D9000822F809583238C93E8812E2BEFCF8FB702
:100DA000F894EC912E2B2C938FBFEACF81309105D4
:100DB00039F0880F991F880F991F05970197F1F750
:100DC00008953FB7F8948091BE019091BF01A09122
:100DD000C001B091C10122B708B600FE05C02F3F87
:100DE00019F00196A11DB11D3FBFBA2FA92F982F51
:100DF0008827BC01CD01620F711D811D911D42E04C
:100E0000660F771F881F991F4A95D1F708958F9213
:100E10009F92AF92BF92CF92DF92EF92FF924B01DF
:100E20005C010E94E1066B017C010E94E1066C19E5
:100E30007D098E099F09683E734081059105A8F3DD
:100E400021E0821A9108A108B10888EEC80E83E05B
:100E5000D81EE11CF11C81149104A104B10429F7EE
:100E6000FF90EF90DF90CF90BF90AF909F908F90CA
:100E700008952FB7F8946091BA017091BB018091E9
:100E8000BC019091BD012FBF0895089585ED86BFE7
:100E900006B604FCFDCF1092300208952091960111
:100EA000260F3327331F21323105ECF42091300215
:100EB000FC0190E080E0243069F082E00895A09188
:100EC00096012191AC014A585E4FA40FB52FB11D78
:100ED0002C930196861798F380919601680F609382
:100EE000960180E0089581E008950895E09124023C
:100EF00080912302E81730F4F0E0ED5FFD4F808130
:100F000090E008958FEF9FEF0895809123029091D4
:100F10002402891B990B0895CF92DF92EF92FF92E2
:100F20000F931F93CF93DF937C01CB018A01209114
:100F30003102222389F0EB016B01C40ED51ECC15C2
:100F4000DD0569F06991D701ED91FC910190F08187
:100F5000E02DC7010995F3CF642F0E944E07C80109
:100F6000DF91CF911F910F91FF90EF90DF90CF9085
:100F70000895CF93DF931F92CDB7DEB76983209199
:100F800031022223F9F020915402203258F021E05E
:100F900030E0FC013383228390E080E00F90DF910A
:100FA000CF91089580913202E82FF0E0ED5CFD4F83
:100FB000998190838F5F809332028093540281E005
:100FC00090E0ECCF61E0CE0101960E944E07F7CF92
:100FD000682F83E493E00C94B9070F931F93CF938A
:100FE0008C01C62FFC0184810E949A04F80183853C
:100FF0008C2B90E00E94E807CF911F910F910C94E9
:1010000045040F931F93CF938C01C62F0E94ED07C9
:101010006C2F6460C8010E94ED0781E090E00E949F
:10102000D6066C2F6B7FC8010E94ED0782E390E02B
:10103000CF911F910F910C94D6060F931F93CF93CE
:10104000DF938C01D62FC42F607F642B0E94010890
:1010500080E1D89FB00111246C2BC801DF91CF91A2
:101060001F910F910C94010841E00E941D0881E03E
:1010700090E008950F931F93CF93DF93082F162FBF
:10108000D42F88E60E949A0490E080E00E94E8074E
:1010900080912702CAE06C2F0E946E258295807F86
:1010A000682F690F83E493E00E94B90780912602BC
:1010B0006C2F0E946E258295807F682F690F83E4D4
:1010C00093E00E94B907809125026C2F0E946E2543
:1010D0008295807F682F690F83E493E00E94B907AF
:1010E00081E090E00E94E807802F6C2F0E946E251F
:1010F0008295807F682F690F83E493E00E94B9078F
:10110000812F6C2F0E946E258295807F682F690F3A
:1011100083E493E00E94B9078D2F6C2F0E946E2507
:101120008295807F682F690F83E493E00E94B9075E
:10113000DF91CF911F910F910C94450490E080E0D6
:1011400008950F931F93E091A402F091A5029B01D3
:10115000AC01225031094109510986819781A0854E
:10116000B1850297A109B109281739074A075B071A
:1011700078F4A281B0E00E941D2502891389248998
:101180003589600F711F821F931F1F910F91089562
:1011900060E070E0CB01F9CF0F931F93CF93DF9303
:1011A000EC01E091A402F091A502198218826C81F1
:1011B0007D818E819F81613071058105910581F16D
:1011C0000681178120853185601771078207930793
:1011D00038F5611571058105910539F420812330B9
:1011E00021F46685778580899189688779878A87E0
:1011F0009B87611571058105910569F00E94A10821
:101200006C877D878E879F8790E080E0DF91CF910C
:101210001F910F9108956685778580899189F0CF18
:1012200081E090E0F3CF8FB9779BFECF08958FEFE9
:101230000E9413098FB108950F931F93CF93DF93EB
:10124000C091CF01D091D0012197CD3F8FEFD8072A
:1012500021F080E00E941309F7CF0E9417098F71D7
:10126000853079F0D1E0C0E061E084E00E94420680
:101270000E9417098D2F9C2FDF91CF911F910F9105
:10128000089508E813E1C0E9D1E00E9417098F3FF3
:1012900049F00115110531F3CE010197F1F7015025
:1012A0001109F3CFD1E0C0E0012BF1F2D0E0DCCFA7
:1012B000FF920F931F93CF93DF93C82FD42F152F37
:1012C000062FF72E8091790281113FC083E58DB9F9
:1012D0001EB8C7FF09C040E050E0BA0187E70E948E
:1012E0005809823060F5CF7761E084E00E944206C1
:1012F0000E94170960E084E00E9442060E941709DC
:101300008C2F0E9413098F2D0E941309802F0E9499
:101310001309812F0E9413098D2F0E94130985E95B
:10132000C03421F087E8C83409F081E00E94130935
:10133000CAE00E94170987FF02C0C150D1F7DF91B0
:10134000CF911F910F91FF90089580E58DB981E0B5
:101350008EB9BFCFCF92DF92EF92FF920F931F9380
:10136000CF93DF937C0169018091790283FD07C0EF
:1013700089E0440F551F661F771F8A95D1F781E5D5
:101380000E945809811108C0C0E4DCE90E941709D5
:101390008F3F29F42197D1F7C1E0D0E022C08E3FE2
:1013A000D9F7C2E0D2E0C01BD10BCC19DD0981E036
:1013B000C81AD10818F00E941709F9CFE114F104F6
:1013C00001F10E0D1F1D0E941709F70181937F0186
:1013D0000E171F07C1F70E9417092197E1F7D0E008
:1013E000C0E061E084E00E9442060E941709CE013D
:1013F000DF91CF911F910F91FF90EF90DF90CF90F1
:1014000008950E94170901501109D9F7E4CFCF922E
:10141000DF92EF92FF920F931F93CF93DF93EC0134
:101420006A017B0102E010E02EEF31E00E94AA0980
:10143000892B31F58881998185359A4A59F526E3BA
:1014400030E0B701A601CE010E94AA09892B29F438
:10145000888199818634914489F002E010E022E588
:1014600030E0B701A601CE010E94AA09892BA1F4A0
:1014700081E0288139812634314419F480E001C0AB
:1014800083E0DF91CF911F910F91FF90EF90DF905C
:10149000CF90089582E0F5CF81E0F3CF4F925F9235
:1014A0006F927F928F929F92AF92BF92CF92DF9274
:1014B000EF92FF920F931F93CF93DF93CDB7DEB7D9
:1014C000A4970FB6F894DEBF0FBECDBF1092A50251
:1014D0001092A40280917902882339F084E00E945E
:1014E0001906892B11F40E941C0961E084E00E9416
:1014F000420661E084E00E949A0661E085E00E9475
:101500009A0661E087E00E949A0661E084E00E940A
:101510009A0683E58DB91EB861E084E00E94420618
:101520001AE00E9417091150E1F740E050E0BA01BB
:1015300080E40E945809182F813009F441C010E05E
:101540001093790261E084E00E9442060E9417092C
:1015500082E090E01123E9F040E050E0BA01CE01D2
:1015600001960E94070AC12CD12C7601813009F026
:1015700096C000E110E02EEB31E040E050E0BA010F
:10158000CE0101960E94AA09892B09F478C081E056
:1015900090E0A4960FB6F894DEBF0FBECDBFDF91EA
:1015A000CF911F910F91FF90EF90DF90CF90BF9060
:1015B000AF909F908F907F906F905F904F90089525
:1015C0004AEA51E060E070E088E40E945809813006
:1015D00091F5CE0101967C016E0195E0C90ED11CFA
:1015E00087010E941709F80181938F01CE16DF064B
:1015F000C1F78B81813009F0A2CF8C818A3A09F042
:101600009ECF80E1C82E87E2D82E90E9A92EBB2478
:10161000B39440E050E060E070E489EE0E94580925
:10162000882309F4C9C0C5010197F1F7F1E0CF1A89
:10163000D10879F784CF40E050E0BA0189EE0E94EA
:10164000580901E4823010F412E009EEA0E1EA2E1C
:10165000A7E2FA2EB0E9CB2EDD24D39440E050E08F
:10166000BA01802F0E945809882309F4BBC0C60123
:101670000197F1F7F1E0EF1AF10881F760CF8D8162
:10168000811103C086E090E084CFC984DA84EB84C2
:10169000FC84B701A601CE0101960E94070A83309F
:1016A00009F475CF8111EECF04E210E02DE030E0B7
:1016B000B701A601CE0101960E94AA09892B09F063
:1016C00066CF2A853B8550E040E021153105410574
:1016D000510521F4288D398D4A8D5B8DAC81B0E0A8
:1016E0000E941D254B015C014A815B8170E060E036
:1016F000C40ED51EE61EF71EC0928402D09285024B
:10170000E0928602F0928702E981E0937C028D816B
:101710009E8190937F0280937E020F81188530E036
:1017200020E0011511052105310521F40C891D89E1
:101730002E893F89F4E096958795FA95E1F72C017B
:10174000712C612C041B150B260B370BC901B8013A
:10175000681979098A099B09641975098609970925
:101760002E2F30E050E040E00E947A25DA01C901D6
:101770000296A11DB11D8093800290938102A093D7
:101780008202B0938302265F3F40410951092F3FF7
:101790003F4E4105510588F1873F9F4FA105B10597
:1017A00088F570CF82E080937A02D501C4018C0D58
:1017B0009D1DAE1DBF1D2DC040E050E0BA018AE75F
:1017C0000E9458098111BBCE0E941709F70181932D
:1017D0007F010E171F07C1F789811CE086FDB0CE7F
:1017E00014E0AECE40E052E060E070E080E50E94A0
:1017F0005809882309F4A4CEA2CE873F9F4FA105A4
:10180000B10580F283E080937A0288A199A1AAA110
:10181000BBA18093880290938902A0938A02B0931F
:101820008B02C40CD51CE61CF71C8C0C9D1CAE1C3A
:10183000BF1C80928C0290928D02A0928E02B09278
:101840008F0210927B028AE792E09093A502809328
:10185000A40290E080E09DCE0F931F93CF93DF937F
:1018600000D000D0CDB7DEB762307105810591059B
:1018700028F461E070E080E090E055C0E091A402BF
:10188000F091A502068117812085318560177107C7
:101890008207930770F7AB01BC018081823031F180
:1018A000833039F79A012F773327220F331F220F06
:1018B000331F97E076956795579547959A95D1F799
:1018C00082859385A485B585480F591F6A1F7B1FA4
:1018D00004E010E0CE0101960E94AA09892B49F686
:1018E00069817A818B819C819F701DC09A01332709
:1018F000220F331F452F562F672F77278285938519
:10190000A485B585480F591F6A1F7B1F02E010E0B0
:10191000CE0101960E94AA09892B09F0AACF6981FC
:101920007A8190E080E00F900F900F900F90DF9100
:10193000CF911F910F9108956F927F928F929F92F6
:10194000AF92BF92CF92DF92EF92FF920F931F93CD
:10195000CF93DF93C091A402D091A502FC01118224
:101960001082209709F4AFC0298120FFAFC00A8DF3
:101970001B8D2C8D3D8D4E895F89688D798D680119
:101980007901C41AD50AE60AF70AB701A60140325E
:1019900051056105710520F040E250E060E070E023
:1019A0005C017A0139E5832E32E0932E612C42E00E
:1019B000742EE114F10409F48CC08E899F89A88DDE
:1019C000B98DAC01BD01517066277727452B462B99
:1019D000472B09F04AC0DA80DA94AC01BD0129E056
:1019E00076956795579547952A95D1F7D42251F565
:1019F000892B8A2B8B2BD9F46E8D7F8D88A199A191
:101A00006230710581059105C8F4198281E090E08A
:101A1000DF91CF911F910F91FF90EF90DF90CF90CA
:101A2000BF90AF909F908F907F906F9008956AA124
:101A30007BA18CA19DA10E942C0CE2CF6AA37BA369
:101A40008CA39DA36AA17BA18CA19DA10E94A1084A
:101A50006115710581059105C1F26D0D711D811D25
:101A6000911D6EA37FA388A799A72E893F89317006
:101A7000C301821B930B67018E159F0508F46C014F
:101A80004EA15FA168A579A58601C4010E94AA099B
:101A9000892B09F0BACF8E899F89A88DB98D8C0DBD
:101AA0009D1DA11DB11D8E8B9F8BA88FB98F8C0C96
:101AB0009D1CEC18FD08F50180819181C80ED91E8E
:101AC000D182C08276CF85E090E0A2CF84E090E022
:101AD0009FCF90E080E09CCF4F925F926F927F9279
:101AE0008F929F92AF92BF92CF92DF92EF92FF922E
:101AF000CF93DF9300D000D000D0CDB7DEB72091D8
:101B0000A4023091A5023E832D832115310509F4ED
:101B10000CC1D90111962C91119720FF09C15A9639
:101B2000CD90DD90ED90FC905D976C157D058E0558
:101B30009F0510F46B017C01ED81FE81468857887A
:101B4000608C718C168A178A108E118EC114D10484
:101B5000E104F10409F4E6C08280912CB12CA12C9F
:101B600039E0880C991CAA1CBB1C3A95D1F741148A
:101B700051046104710409F470C0B1E04B1A5108BA
:101B800061087108C701B6016150710981099109A5
:101B9000A50194010E947A2529833A834B835C83B3
:101BA000C301B201A50194010E947A2589819A811D
:101BB000AB81BC8182179307A407B50708F44DC019
:101BC00088279927DC0188199909AA09BB0984216A
:101BD0009521A621B721ED81FE81868B978BA08F61
:101BE000B18FC81AD90AEA0AFB0A62A173A184A1BB
:101BF00095A18C149D04AE04BF0408F058C00E9447
:101C00002C0C623071058105910568F0AD81BE81B3
:101C100016964D905D906D907C90199764157505A2
:101C20008605970540F1ED81FE81118281E090E00B
:101C300026960FB6F894DEBF0FBECDBFDF91CF91D1
:101C4000FF90EF90DF90CF90BF90AF909F908F90DC
:101C50007F906F905F904F900895AD81BE815E96AA
:101C60006D917D918D919C919197FD0162A373A3DC
:101C700084A395A3BECFAD81BE8192966D937D93D3
:101C80008D939C93959756964D905D906D907C901A
:101C90005997480C591C6A1C7B1CFD01468A578ABF
:101CA000608E718EC818D908EA08FB08A2CFAD81F2
:101CB000BE8156968D909D90AD90BC905997C80C62
:101CC000D91CEA1CFB1CFD01C68AD78AE08EF18E66
:101CD0000E94A108AB01BC014115510561057105C8
:101CE00029F4AD81BE8111961C92A0CFED81FE81B9
:101CF00082818150990B092E000CAA0BBB0B29E0A5
:101D0000F694E794D794C7942A95D1F78C219D2116
:101D1000AE21BF21480F591F6A1F7B1F46A357A33F
:101D200060A771A790E080E083CF85E090E080CF4E
:101D300084E090E07DCF4F925F926F927F92BF924E
:101D4000CF92DF92EF92FF920F931F93CF93DF9387
:101D5000CDB7DEB7EC970FB6F894DEBF0FBECDBFA0
:101D6000E090A402F090A502E114F10409F404C18A
:101D7000F70111829E012F5C3F4F3CA32BA39C01D6
:101D80006901F90180812F5F3F4F8032C9F38F32A3
:101D900009F469011DA21EA21FA218A6F6018081E6
:101DA000A0E2BA2E803208F0D4C0CE0181960E9403
:101DB000CC081982009709F407C1EC960FB6F89485
:101DC000DEBF0FBECDBFDF91CF911F910F91FF906E
:101DD000EF90DF90CF90BF907F906F905F904F908B
:101DE000089520E0E0E088E0D1C0C30ED11C81E07E
:101DF000913208F080E01B968C93CE0181960E9470
:101E0000CC080097D1F629A13AA12F703327F5E02D
:101E1000220F331FFA95E1F74DA55EA56FA578A9AE
:101E200000E210E0CE0101960E94AA09892B19F068
:101E300081E090E0C2CF8981811103C083E090E00E
:101E4000BCCF8C8583FD13C00BA11CA19E012F5F0D
:101E50003F4FD801B801655F7F4F6A177B0709F4D0
:101E6000AEC0F90141919F019D914917B1F309A1BC
:101E70001AA10F5F1F4F11F38DA59EA5AFA5B8A99D
:101E80000097A105B105D1F298012F703327232BBC
:101E9000B9F40196A11DB11D8DA79EA7AFA7B8AB40
:101EA00069A57AA58BA59CA5F7016115710581052A
:101EB000910549F4848195810817190708F0BECF70
:101EC0001AA309A3A0CF2281E22FE150FF0BAF019B
:101ED0009801E4E036952795EA95E1F72423352328
:101EE000232B71F70E942C0C62307105810591053E
:101EF00008F49ECFF7014680578060847184641592
:101F000075058605970508F099CF69A77AA78BA76D
:101F10009CA70E94A1086DA77EA78FA798ABD0CFE2
:101F200084FF8CCFF70180818330F1F48D899E8905
:101F3000B0E0A0E0DC01992788274B8D5C8D70E034
:101F400060E0842B952BA62BB72B8DA39EA3AFA36C
:101F5000B8A7ABA1BCA1FD01CD010B968E179F07C1
:101F600009F43FCFB192FACF80E090E0DC01E5CFF9
:101F700080E090E0DC013DC085E090E01ECF88303D
:101F800009F033CF9BE0282FE32F892F31E03E0F5C
:101F9000EC0DFD2DF11D9081913208F426CF9F327A
:101FA00009F423CF9E3259F3281708F01ECFFD0104
:101FB000E20FF11D9083982F81E0820FE4CFF801AA
:101FC0009385992309F4ACCF8981882309F436CF0E
:101FD0008C8584FD33CFE091A402F091A50280812D
:101FE000833031F68D899E89B0E0A0E0DC0199272D
:101FF00088274B8D5C8D70E060E0842B952BA62BA1
:10200000B72BF701868F978FA0A3B1A38D8D9E8DDF
:10201000AF8DB8A1828F938FA48FB58F168A178A40
:10202000108E118E81E0818390E080E0C6CECF9348
:10203000DF93D82FC0E061E08FE00E94420660E0AD
:102040008FE00E944206CF5FDC13F5CFDF91CF9186
:1020500008951F93CF93DF93182FD92F81E00E940B
:10206000171060E082E00E944206CFEFCABB81E217
:102070008BBB82E00E9417101ABACBBB82E00E9491
:102080001710CABB1BBB83E00E941710DBBB82E0AA
:102090000E9417101ABACBBB61E082E0DF91CF91AA
:1020A0001F910C944206CF93DF93D82F81E00E94BA
:1020B000171060E082E00E944206CFEFCABB86E3C1
:1020C0008BBB82E00E9417101ABACBBB82E00E9441
:1020D0001710CABBDBBB82E00E9417101ABACBBB39
:1020E00061E082E00E94420683E00E94171081E0D6
:1020F0000E94171060E082E00E944206CABB83E2A1
:102100008BBB82E00E9417101ABACBBB61E082E061
:102110000E94420683E0DF91CF910C94171086EA6B
:1021200092E00E943F05181619069CF48091F00178
:10213000813079F480916B00882359F060E081E070
:102140000E9442068091D80181608093D80110924C
:102150006B0008950E944B0581110C948F10089517
:10216000AC01809130028111FCCF962F81E08093E9
:10217000300280932F022FEF20932E0223E032E0D3
:1021800030932D0220932C0210922B022FEF260F5A
:1021900020932A028093290220912902440F551F7F
:1021A000822F842B80932902809128028130D1F4E0
:1021B000109228028091290283B906B603FCFACF57
:1021C00085EC86BF809130028130E1F380912B0253
:1021D000861710F490912B02109224029093230200
:1021E000892F089585EEEDCFCF9388E60E949A045B
:1021F00090E080E00E94E8070E94450462E170E000
:1022000088E690E00E94B0100E94B704982F929543
:102210009770CAE08F709C9F800D112480932702D5
:102220000E94B704982F92959F708F709C9F800D8D
:102230001124809326020E94B704982F92959370E0
:102240008F709C9F800D1124809325020E94B704FB
:102250000E94B704982F92959F708F709C9F800D5D
:102260001124809302020E94B704982F92959F70C8
:102270008F709C9F800D1124809301020E94B704EF
:10228000982F92959F708F709C9F800D1124809342
:1022900000020E94B704C150E1F70E94B704809386
:1022A000FF01CF910895FB0101900020E9F73197DC
:1022B000AF01461B570BDC01ED91FC910280F381CD
:1022C000E02D09948F929F92AF92BF920F931F932C
:1022D000CF93DF93CDB7DEB7A1970FB6F894DEBFEB
:1022E0000FBECDBF19A2423008F44AE08E010F5D47
:1022F0001F4F842E912CB12CA12CA50194010E947A
:102300007A25E62FB901CA01EA3004F5E05DD8016B
:10231000EE938D01232B242B252B79F790E080E081
:10232000109729F0BD0186EA92E00E945311A19610
:102330000FB6F894DEBF0FBECDBFDF91CF911F91D6
:102340000F91BF90AF909F908F900895E95CDFCF81
:10235000CF92DF92EF92FF92CF93DF936C01990FB0
:10236000EE08FF08F7FE19C06DE286EA92E00E94CF
:102370007605EC0166277727CB016C197D098E095C
:102380009F094AE00E9462118C0F9D1FDF91CF913F
:10239000FF90EF90DF90CF9008954AE0C701B6011B
:1023A000DF91CF91FF90EF90DF90CF900C9462116E
:1023B00066ED70E086EA92E00C945311CF93DF93C0
:1023C0000E94C205EC010E94D8118C0F9D1FDF9165
:1023D000CF91089586EA92E00E943F0518161906EB
:1023E0002CF486EA92E00E941D05F4CF8EEB92E079
:1023F0000E94DE1186EA92E00E943F051816190637
:10240000CCF70895CF93DF93BC0186EA92E00E9457
:102410005311EC010E94D8118C0F9D1FDF91CF91B9
:1024200008956115710511F00C94531190E080E04E
:1024300008950F931F93CF93DF93D82FC62F8A0150
:102440008AE593E00E94C2056C2F70E090E080E086
:102450004AE00E94621169ED70E086EA92E00E9413
:1024600011128FE393E0C330C1F058F481E593E09B
:10247000C13099F087E493E0C23079F082E193E0D3
:102480000CC088E293E0C53041F084E393E0C530AE
:1024900020F08AE193E0C63089F70E94C2058DE002
:1024A00093E00E94C20582E093E0D13031F087E0F2
:1024B00093E0D23011F48DEF92E00E94C20582EFDA
:1024C00092E00E94C2050115110549F088EE92E0E4
:1024D0000E94C205B80186EA92E00E9411128CEDBA
:1024E00090E0DF91CF911F910F910C9402121F93F6
:1024F000CF93DF9300D0CDB7DEB7182F6EED70E02D
:1025000086EA92E00E941112612F70E090E080E074
:102510004AE00E946211105D1093620080E690E034
:102520000E949B0ECE0101960E949C0C8981809393
:10253000D501882391F069ED70E086EA92E00E946F
:10254000111269E572E086EA92E00E9411126CEDC8
:1025500070E086EA92E00E9411120F900F90DF91D6
:10256000CF911F910895CF93C82F8A3030F468EE31
:1025700070E086EA92E00E9411126C2F70E090E009
:1025800080E04AE0CF910C94621181110E94F41016
:10259000809102020E94B3126AEE70E086EA92E035
:1025A0000E941112809101020E94B3126AEE70E043
:1025B00086EA92E00E941112809100020E94B312FA
:1025C00066EE70E086EA92E00E9411128091250288
:1025D0000E94B3126CEE70E086EA92E00E94111243
:1025E000809126020E94B3126CEE70E086EA92E0BF
:1025F0000E941112809127020C94B312FC01808179
:102600009181009711F00C94CC2460E070E0CB0134
:102610000895FC0180819181009711F00C943E2671
:102620000895EF92FF920F931F93CF93DF93EC01E6
:102630007B018A0188819981009729F02A813B8159
:102640002417350788F4B8016F5F7F4F0E94C726B3
:10265000009791F0998388831B830A832C813D81A5
:10266000232B11F4FC0110821D830C83B701888198
:1026700099810E948D270CC088819981009711F063
:102680000E943E26198218821D821C821B821A8299
:10269000CE01DF91CF911F910F91FF90EF900895A0
:1026A000AF92BF92CF92DF92EF92FF920F931F9360
:1026B000CF93DF93EC016B015A01790124173507A1
:1026C00020F48B2D5901E42EF82E198218821B82DA
:1026D0001A821D821C8250E040E068ED70E0CE015D
:1026E0000E941113D60114960D911C91A016B106EB
:1026F00028F5E016F10608F48701D601ED91FC916A
:102700001197E00FF11FF08010826D917C916A0D9E
:102710007B1D61157105F1F0FB0101900020E9F7C7
:102720003197AF01461B570BCE010E941113F601E2
:1027300080819181080F191FD801FC92CE01DF9191
:10274000CF911F910F91FF90EF90DF90CF90BF90AE
:10275000AF90089588819981009711F00E943E26DC
:10276000198218821D821C821B821A82E0CF1F935D
:10277000CF93DF93EC01162F0E940825181739F02C
:10278000612FCE01DF91CF911F910C941025DF9125
:10279000CF911F9108950C940825CF92DF92EF926C
:1027A000FF920F931F93CF930E9439076B017C0117
:1027B000C1E086EA92E00E943F05892B09F09BC0A8
:1027C0000E9439076C197D098E099F09683B7B407F
:1027D00081059105A0F462E08DE00E949A068DE0EB
:1027E0000E941906892B09F0C0E061E08DE00E948B
:1027F0009A066AE070E080E090E00E9407070E947D
:1028000039070091550210915602209157023091DC
:102810005802601B710B820B930B6D327140810566
:102820009105A0F080E00E94190661E0892B09F073
:1028300060E080E00E9442060E94390760935502E2
:102840007093560280935702909358020E94390762
:102850006C197D098E099F09693B7B4081059105B3
:1028600008F4A7CFCC2309F4A4CF8FE090E00E9416
:10287000CB13893009F49DCF60E080E00E944206CE
:1028800069E08FE090E00E94B71382E098E00E9438
:10289000DE110E943907C0905502D0905602E09098
:1028A0005702F09058026C197D098E099F09653610
:1028B00071058105910568F380E00E94190661E0C9
:1028C000892B09F060E080E00E9442068DE00E94C2
:1028D000190661E0892B09F060E08DE00E94420654
:1028E0000E943907609355027093560280935702F5
:1028F00090935802CECFCF911F910F91FF90EF9000
:10290000DF90CF9008951F920F920FB60F9211246F
:102910002F933F934F935F936F937F938F939F93E7
:10292000AF93BF93EF93FF9386EA92E00E94550521
:10293000FF91EF91BF91AF919F918F917F916F9197
:102940005F914F913F912F910F900FBE0F901F906D
:1029500018951F920F920FB60F9211242F938F93F9
:102960009F93EF93FF93E091B602F091B7028081BD
:10297000E091BC02F091BD0282FD1BC0908180916C
:10298000BF028F5F8F732091C002821741F0E091E8
:10299000BF02F0E0EA55FD4F958F8093BF02FF9193
:1029A000EF919F918F912F910F900FBE0F901F90DD
:1029B00018958081F4CF1F920F920FB60F921124B9
:1029C0002F933F938F939F93AF93BF938091BA01BF
:1029D0009091BB01A091BC01B091BD013091B901B2
:1029E00023E0230F2D3768F126E8230F0296A11D5F
:1029F000B11D2093B9018093BA019093BB01A093BC
:102A0000BC01B093BD018091BE019091BF01A09126
:102A1000C001B091C1010196A11DB11D8093BE01FD
:102A20009093BF01A093C001B093C101BF91AF913A
:102A30009F918F913F912F910F900FBE0F901F90FC
:102A400018950196A11DB11DD4CF1F920F920FB6FC
:102A50000F9211242F933F934F935F936F937F9324
:102A60008F939F93AF93BF93EF93FF9381B1887F31
:102A7000803609F44AC0F0F5883209F4A3C018F58D
:102A8000803109F499C0B8F4882309F4FDC0883076
:102A900009F492C0FF91EF91BF91AF919F918F91F7
:102AA0007F916F915F914F913F912F910F900FBE4A
:102AB0000F901F901895883109F484C0803251F727
:102AC00080932E0214C0803409F4A0C040F48033F7
:102AD000B9F38833F9F680932E0285ECB6C08035C1
:102AE00009F485C0883509F499C0883499F60E94A4
:102AF0004607D0CF883909F48FC030F5883729F0E0
:102B000050F4883611F0803729F683E08093300244
:102B10001092B80154C0883809F47EC0803919F089
:102B2000803809F0B7CF8091B801803208F074C0C6
:102B3000E091B80181E08E0F8093B80183B1F0E09D
:102B4000E856FE4F80833BC0803B39F0E0F4803A8A
:102B500009F47FC0883A09F09DCF84E08093300269
:102B60001092970110929601E091FD01F091FE0103
:102B700009958091960181110FC081E080939601A3
:102B80001092760109C0803C09F4A7CF883C09F473
:102B9000A4CF883B09F07ECFE091970181E08E0FB2
:102BA00080939701F0E0EA58FE4F808183B99091BD
:102BB0009701809196012EC08091290283B985ECFE
:102BC00086BF68CF90912B0280912A029817A8F5B2
:102BD00080912C0290912D02E0912B0221E02E0F8A
:102BE00020932B02E80FF92FF11D8081E7CF209170
:102BF0002C0230912D02E0912B0281E08E0F809308
:102C00002B0283B1E20FF32FF11D808390912B02F1
:102C100080912A02981798F285E8D2CF20912C0251
:102C200030912D02E0912B0281E08E0F80932B02D8
:102C300083B1E20FF32FF11D808380912F02811168
:102C400056CF81E08093280284EA86BF109230023A
:102C500021CF85EC86BF109230028091B80180327E
:102C600030F4E091B801F0E0E856FE4F1082609138
:102C7000B80170E0E091FB01F091FC0188E991E07E
:102C800009951092B80106CF10922E0230CFEF9224
:102C9000FF920F931F93CF93DF930097C9F0EA0140
:102CA0008C012097B1F1E090CF01F090D001E114B8
:102CB000F10479F1F80181918F010E941309F1E08B
:102CC000EF1AF108F092D001E092CF012197E9CFFD
:102CD000411551056105710529F18091790283FD46
:102CE00007C089E0440F551F661F771F8A95D1F7EB
:102CF00088E50E94580981111DC08FEF0E941309B9
:102D00008EEF0E94130980E092E09093D0018093AF
:102D1000CF0190E080E0DF91CF911F910F91FF9064
:102D2000EF900895DF91CF911F910F91FF90EF9059
:102D30000C941C0981E090E0EECFE6EAF2E0138209
:102D4000128288EE93E0A0E0B0E084839583A683AE
:102D5000B7832AEA30E03183208320E430E03587EE
:102D6000248749E250E0578746874BE250E0518B79
:102D7000408B4AE250E0538B428B358B248B2CE204
:102D800030E0378B268B118E128E138E148EE3E477
:102D9000F3E01382128284839583A683B7838CEB3E
:102DA00090E091838083EBE5F3E0138212828EEC56
:102DB00090E09183808387E2848380E1808784E050
:102DC0008187128688E08387E5E5F3E0118210822F
:102DD000138212821582148248E050E06EEE70E099
:102DE000CF010E941113EFE4F3E0118210821382ED
:102DF0001282158214824BE050E067EF70E0CF0141
:102E00000C941113CF93DF93CDB7DEB72A970FB68B
:102E1000F894DEBF0FBECDBF789483B7836083BFC5
:102E200083B7886483BF89B7816089BF82E08EBD24
:102E30008EB581608EBD8FB581608FBD85B5846094
:102E400085BD85B5806485BD87E886B91AB861E01F
:102E500086E10E949A0660E086E10E94420661E0F7
:102E600080E00E949A0660E080E00E94420662E0F4
:102E70008DE00E949A068DE00E9419068C0161E0A7
:102E80008DE00E949A0661E08DE00E94420662E0B9
:102E900081E00E949A0661E081E00E949A0661E06A
:102EA00081E00E94420661E082E00E949A0661E0B1
:102EB00082E00E94420660E083E00E949A0662E09F
:102EC0008EE00E949A0661E08EE00E949A0661E020
:102ED0008EE00E9442061ABA8FEF8BBB62E085E15A
:102EE0000E949A0662E084E10E949A0662E083E111
:102EF0000E949A0662E082E10E949A0661E08CE0FC
:102F00000E949A0661E08CE00E94420661E08BE03C
:102F10000E949A0660E08BE00E94420661E08FE02A
:102F20000E949A0660E086E10E94420686E00E94C6
:102F3000171061E086E10E94420682E00E941710AD
:102F400062E08AE00E949A0661E087E10E949A06A8
:102F500060E087E10E94420664E670E080E090E075
:102F60000E94070761E087E10E94420664EF71E07A
:102F700080E090E00E9407078DE090E00E94CB1374
:102F8000823028F061E08DE090E00E94B7138DE080
:102F900090E00E94CB138093CE018EE090E00E94DF
:102FA000CB138093F601863038F060E08EE090E03D
:102FB0000E94B7131092F6010E94700680E20E94F0
:102FC0009A040E944504811110C081E08093F701AA
:102FD00080E20E949A048CE090E00E94E80785E07D
:102FE00090E00E94E8070E9445040E94700610923B
:102FF000600380916403823018F098E0909360033E
:1030000090916503992339F0813029F48091600310
:1030100084608093600362E370E080E090E00E944F
:103020000707609166038BE593E00E94ED0768EE69
:1030300073E080E090E00E94070760E38BE593E097
:103040000E94010884E991E10E94D60660E38BE5C5
:1030500093E00E94010884E991E10E94D60660E3B2
:103060008BE593E00E94010886E990E00E94D60675
:1030700060E28BE593E00E9401086091600360626A
:1030800040E08BE593E00E941D0884E0809361039B
:1030900040E06CE08BE593E00E941D0840E061E0B9
:1030A0008BE593E00E941D0880ED97E00E94D60614
:1030B00082E08093620340E066E08BE593E00E944B
:1030C0001D0840E062E08BE593E00E941D0880ED62
:1030D00097E00E94D6068FE090E00E94CB138A30E2
:1030E00028F069E08FE090E00E94B7138FE090E055
:1030F0000E94CB13C12C22ECD22EEE24E394F12CAF
:10310000893050F4E82FF0E0EE0FFF1FEC56FF4F30
:10311000C080D180F12CE12C60E079E08DE390E07B
:10312000A70196010E947A252150310941095109D0
:103130005695479537952795E091B602F091B702DD
:1031400082E08083C11441EED406E104F10421F051
:10315000211550E13507A8F0E091B602F091B702D1
:10316000108260E874E88EE190E0A70196010E9469
:103170007A252150310941095109569547953795CE
:103180002795E091B202F091B3023083E091B4024E
:10319000F091B50220831092BE02E091BA02F09144
:1031A000BB0286E88083E091B802F091B902808189
:1031B00088698083E091B802F091B90280818F7DA7
:1031C000808383EC97E00E94DE118CEA97E00E94F6
:1031D000C2058091CE0163E071E0811102C065E01B
:1031E00071E086EA92E00E94111288EA97E00E945C
:1031F000DE1188E60E949A040E94450481112FC1C5
:1032000081E894E00E94C20581E00E94C5128CED25
:1032100090E00E9402128CE594E00E94C205809129
:10322000FF01082E000C990B0E94A81187E091E085
:103230000E94021288E60E949A048FE090E00E94A9
:10324000E8070E94450461E070E088E690E00E9493
:10325000B0100E94B70487FFDEC028E030E046E0EF
:1032600050E065E573E0CE0101960E945013CE0157
:1032700001960E94FE1260932702CE0101960E94E1
:10328000091325E030E043E050E065E573E0CE014E
:1032900001960E945013CE0101960E94FE12609387
:1032A0002602CE0101960E94091322E030E050E090
:1032B00040E065E573E0CE0101960E945013CE0117
:1032C00001960E94FE1260932502CE0101960E9493
:1032D000091326E030E044E050E06FE473E0CE01F3
:1032E00001960E945013CE0101960E94FE12609337
:1032F0000202CE0101960E94091390E080E00E9434
:10330000CA04EFEBE80FE33158F50E2E000CFF0B6B
:10331000E457F64E0C949C25131AB019B0192D1AC7
:10332000B019111AB019B019B0199F19B019B01904
:103330001D1A2B1A291AB019B019B019271A81E0D1
:1033400090E00E94CA04813609F467C082E090E0F0
:103350000E94CA048E3609F062C086E080930102A2
:103360002BE030E049E050E06FE473E0CE010196DD
:103370000E945013CE0101960E94FE12609300023B
:10338000CE0101960E94091384E494E00E94DE11AC
:1033900089E194E00E94C20580E00E94C5128EE09F
:1033A00094E00E94C2050E94CD1386EA92E00E943A
:1033B0001D058093CC01982F9F7D993511F09E3487
:1033C00091F7682F86EA92E00E9476050E94D81154
:1033D0008091CC018F7D893589F440910002609104
:1033E0000102809102020E943A0889EE93E00E9455
:1033F000C20581E00E94C5120E94D81188E60E9491
:103400009A048FE090E00E94E80788E090E00E9434
:10341000E8070E94450481E023C081E09FCF87E058
:103420009DCF82E09BCF82E090E00E94CA04823769
:1034300011F484E093CF88E091CF82E090E00E9485
:10344000CA04823711F483E089CF85E087CF89E011
:1034500085CF8AE083CF8BE081CF8CE07FCF80E087
:103460008093D7018091F701882321F082E997E0CA
:103470000E94DE118BE797E00E94C2058CE090E08D
:103480000E94CB13823028F060E08CE090E00E9434
:10349000B7138CE090E00E94CB138093D601882371
:1034A000F9F088E797E00E94DE110E944E0A0E9420
:1034B0004E0A8AE090E00E94CB138093CD01012B4D
:1034C00019F0853008F4C3C086EA92E00E943F05F7
:1034D0001816190644F486EA92E00E941D05F4CFFE
:1034E00084E797E0E0CF0E94D81188E497E00E943B
:1034F000DE110E94D8111091CD0101E3153070F456
:1035000088E397E00E94C205812F90E001960E9417
:10351000A8118CED90E00E94021200E38EE297E089
:103520000E94DE1184E297E00E94DE1183E197E0C1
:103530000E94C2058091F6010E94771284E097E014
:103540000E94DE118AEF96E00E94DE118BED96E07C
:103550000E94C2058091CE0165E071E0811102C038
:1035600063E071E086EA92E00E94111286ED96E037
:103570000E94DE1189EB96E00E94C2058091D6017F
:103580008111BAC069E071E086EA92E00E941112EE
:103590008CED90E00E94021289E996E00E94C2053B
:1035A0008FE090E00E94CB13893008F0AAC0E82F8A
:1035B000F0E0EE0FFF1FEC56FF4F6081718190E04D
:1035C00080E04AE00E9462118CED90E00E940212BD
:1035D0008091D70118E3882329F083E896E00E94C0
:1035E000DE1119E30E94D8118FE696E00E94C20511
:1035F0000E94CD1386EA92E00E941D058093CC01C3
:103600008017B4F31817A4F3682F86EA92E00E949B
:1036100076058AE696E00E94DE118091CC01873320
:1036200009F41DC10CF072C0833309F4B9C08633AC
:1036300009F409C16091CC0161536093CD016530FB
:1036400010F00C94B1248AE090E00E94B7138091AE
:10365000CD01823051F484E096E00E94C205809151
:10366000F6010E9477120E94D8111091CD011230FC
:1036700009F4F7C208F0D0C2112309F4E4C288E1CA
:1036800091E0113009F425C361E080E00E94420618
:10369000E090C701F090C801E114F10469F090E0F6
:1036A00080E00E94291083EC0E9453108E2D0E940E
:1036B00053108F2D0E945310C7010E9429101430FF
:1036C00008F0CAC30E944E0A882309F41AC30E9454
:1036D0004E0A8093C201882309F413C36091C2018A
:1036E000662329F050E040E080E00E9419120E9419
:1036F000EA110E944E0AEBCF85EB96E00E94C205CC
:1037000047CF60E072EC81E090E05BCF883309F452
:10371000B0C0893309F08ECF0E94F4101092F201EC
:1037200087E895E00E94DE1188E595E00E94DE11B1
:103730006AE0F62E76EFE72EDD24D39486E595E059
:103740000E94C2058091F201823009F41CC108F088
:10375000FDC0882309F407C1813009F40DC10E941E
:10376000CD1386EA92E00E941D05082F8093CC01BC
:10377000853709F426C1853509F423C1843711F44E
:103780000C94B924843511F40C94B9248D3039F794
:103790001091F2016DE086EA92E00E94760536C152
:1037A00080EA94E00E94DE118091F60181508093BE
:1037B000CB0106E08091CB018F5F602F0E946E25C8
:1037C000192F9093CB0185E696E00E94C205812FC8
:1037D0000E94771282E596E00E94C20586EA92E096
:1037E0000E943F05181619062CF486EA92E00E9402
:1037F0001D05F4CF86EA92E00E943F0518161906CF
:103800001CF00E94CD13F6CF86EA92E00E941D05BF
:103810008093CC018D3011F08B3161F60E94D8116C
:103820000E94D8118091CC018D3009F003CF6091B6
:10383000CB016093F6018EE090E00E94B71383E322
:103840008093CC01F7CE61E08091CE01811160E0E0
:103850006093CE018DE090E00E94B713EBCE61E063
:103860008091D601811160E06093D6018CE090E0F8
:10387000F3CF80EA94E00E94DE118FE090E00E9496
:10388000CB1381508093CB010AE08091CB018F5FF5
:10389000602F0E946E25192F9093CB018DE496E046
:1038A0000E94C20560E072EC81E090E0193051F0B6
:1038B000E12FF0E0EE0FFF1FEC56FF4F60817181AA
:1038C00090E080E04AE00E94621188E496E00E9465
:1038D000C20586EA92E00E943F05181619062CF4EC
:1038E00086EA92E00E941D05F4CF86EA92E00E94EB
:1038F0003F05181619061CF00E94CD13F6CF86EA74
:1039000092E00E941D058093CC018D3019F08B311F
:1039100009F0BBCF0E94D8110E94D8118091CC0130
:103920008D3009F087CE8FE090E00E94CB1360913C
:10393000CB01861711F40C94AE248FE090E00E9426
:10394000B71382E196E00E94DE1174CE843091F1CB
:1039500050F1853009F003CF8AE095E00E94C2055E
:103960008091270206C08DE495E00E94C2058091F7
:1039700000020E94B312F3CE83E495E00E94C205D8
:1039800080910102F6CF85E395E00E94C2056DE0CB
:1039900086EA92E00E9476058CE295E00E94C205DC
:1039A00080910202E6CF82E295E00E94C2058091FA
:1039B0002502DFCF86E195E00E94C20580912602B4
:1039C000D8CF1091F201123009F466C0E8F5112346
:1039D00009F44CC0113009F454C0802F8F7D843518
:1039E00011F00C94BD24123009F4C7C008F08CC04B
:1039F000112309F4A3C0113009F4B2C06DE086EAC6
:103A000092E00E9476050D3009F098CE1F5F10936A
:103A1000F201163008F492CE40910002609101024A
:103A2000809102020E943A088AEF94E00E94DE111F
:103A30008DED94E00E94C20581E00E94C5128CEDDC
:103A400090E00E940212F6CD143009F452C008F43E
:103A500045C0153011F6809127028F5F80932702B1
:103A60008C3308F4BACF10922702B7CF80910002AE
:103A70008F5F80930002843608F4AFCF109200026B
:103A8000ACCF809101028F5F809301028D3008F4EA
:103A9000A4CF10930102A1CF809102028F5F809387
:103AA0000202E0910102E23089F490E020910002EC
:103AB000237049F42DE130E0281739070CF08DCF41
:103AC000D09202028ACF2CE130E0F6CFF0E0E95745
:103AD000FF4F9081981708F080CFF2CF8091250298
:103AE0008F5F80932502883108F477CF10922502EA
:103AF00074CF809126028F5F809326028C3308F466
:103B00006CCF1092260269CF143009F473C008F408
:103B10005FC0153009F072CF20912702265F2093F5
:103B200027022C3308F429C7822F6F2D0E946E259F
:103B30008E9D200D11242093270260CF209100023A
:103B4000265F20930002243608F417C7822F6F2DBA
:103B50000E946E258E9D200D1124209300024ECFD1
:103B6000809101028B3020F08A508093010246CF71
:103B7000833008F002C7865FF8CF20910202265FEB
:103B800020930202422F50E0E0910102F0E0E95759
:103B9000FF4F808190E030910002337061E070E06F
:103BA00011F070E060E0860F971F841795074CF4C2
:103BB000822F6F2D0E946E258E9D200D1124209343
:103BC0000202809102028111D8C6D092020216CF61
:103BD00020912502265F20932502283108F4CDC6C6
:103BE000822F6F2D0E946E258E9D200D1124209313
:103BF000250204CF20912602265F209326022C3333
:103C000008F4BBC6822F6F2D0E946E258E9D200D5D
:103C1000112420932602F2CE133009F46FC0143021
:103C200009F032CDE2E0F6E0859194919093C601DF
:103C30008093C5018AE692E09093C4018093C3010A
:103C400080E19DEF3FC08CE091E09093CA018093AA
:103C5000C9011092C8011092C70181E08093F00160
:103C600013CD8091F601823091F170F4882311F127
:103C7000813009F009CD8EE291E09093CA018093E2
:103C8000C90180E890E01EC08430A9F148F1853078
:103C900009F0FACC88E591E09093CA018093C901BC
:103CA0001092C8011092C70181E08093F0018093C7
:103CB000EF01EACC84E291E09093CA018093C901BC
:103CC00080EE91ED9093C8018093C701DDCC89E32C
:103CD00091E09093CA018093C90180E091E0F2CF16
:103CE00084E491E09093CA018093C9011092C801C5
:103CF0001092C701C9CC80E591E0F4CF82E691E053
:103D0000F1CF8091C9019091CA010E949B0E8093CE
:103D1000C201882321F16091C201662339F04091EC
:103D2000C9015091CA0181E00E9419120E94EA1152
:103D30000091C9011091CA01C8010E949B0E809395
:103D4000C201833049F00E944E0A0E944E0AC80107
:103D50000E949B0E8093C2018091C201DACF86EE51
:103D600095E00E94C2056091C9017091CA0186EA7E
:103D700092E00E94111281EE95E00E94C205CE01F0
:103D800001960E949C0C082F89818093D501009395
:103D9000C2011092CB011091CB018091D50118176F
:103DA00058F4E12FF0E0E75AFD4F80810E94531054
:103DB0001F5F1093CB01EFCF803291F40023F9F213
:103DC0004091C9015091CA01602F82E00E941912EE
:103DD0000E94EA1160E070E0CB010E946C0D02C00D
:103DE0000111EECF8091C2018111C9CF8EEB95E018
:103DF0000E94DE1160E086E10E94420682B5877F64
:103E000082BD85B5816085BD85B5897F85BD85B558
:103E1000886085BD85B58F7B85BD85B5806185BD95
:103E200085B58F7D85BD8091CE0183BD61E08FE03A
:103E30000E949A0681EA95E00E94DE110E94D81144
:103E400086EA92E00E943F0518161906FCF486EAFD
:103E500092E00E941D05F4CF84EC95E00E94C2051B
:103E600010E000E08091C3019091C4010817190788
:103E700008F0BCCFE091C501F091C601E00FF11F41
:103E800084910E9453100F5F1F4FECCF61E070E0F0
:103E900080E090E00E94070761E086E10E94420610
:103EA00051E1C52EDD24DA9483E00E941906892BA6
:103EB00009F0D0C383E10E941906892B09F082C35F
:103EC00082E10E941906F9B2F092FA01882379F092
:103ED000F09279001092F9011092F80160E08EE002
:103EE0000E94420660E080E00E944206ABC3E0917F
:103EF0007900E43208F02FC0F0E0EF57F04E0C9458
:103F00009C25A51FBA1FAB1FC01FD31FDD1FE71FB6
:103F1000F21FFD1F08202B2059207020C021D7211F
:103F2000E121E721EC214A22AB1FAB1FAB1FAB1FE6
:103F3000AB1FAB1FAB1FAB1FAB1FAB1FAB1FAB1F31
:103F4000AB1F7B228822BF22C52260E0F0FE61E029
:103F50008DE00E944206809179008A3009F4BECF3C
:103F60008C3009F4BBCF8D7F813209F4B7CFD0926A
:103F70007900B4CF6F2D86EA92E00E947605EBCFF0
:103F80008091F701882339F380E20E949A0482E14C
:103F900090E00E94E8076F2D83E493E00E94B90748
:103FA0000E944504D8CF8091F7018823A1F280E2D6
:103FB0000E949A0483E190E0ECCF8091F70188237E
:103FC00051F280E20E949A0490E080E0E2CF80917A
:103FD000F701882309F4BFCF80E20E949A0481E0B0
:103FE00090E0D7CF8091F701882309F4B4CF80E225
:103FF0000E949A048CE090E0CCCF8091F701882356
:1040000009F4A9CF80E20E949A048DE090E0C1CF2C
:1040100083E68F15E0F08091F601805D809370005B
:104020008F2D6AE00E946E2590E3980F90937200A6
:1040300090E3F90EE6EF8E9FF00C1124F0927300DE
:104040008EE690E00E949B0E80936D0084CFF0E19D
:10405000F0936D0080CF8091F8019091F9014F2D80
:1040600050E0009751F45093F5014093F40101960C
:104070009093F9018093F8016ECF2091F4013F2DC8
:104080003093F5012093F4014091F3012115324062
:1040900038F4403250F410926D00D0927900E7CF9E
:1040A000403218F4C0926D00F8CF22E120936D00E9
:1040B000F4CFF092F3018091F4019091F501811514
:1040C000924030F4FFE1FF1548F010926D0043CFAD
:1040D0002FE12F1518F0C0926D003DCF82E1B4CFD3
:1040E000A090F801B090F901A114B10419F5609104
:1040F000F4017091F501611532E07307D8F48091F5
:10410000F3018032B8F490916D00911113C035E045
:10411000660F771F3A95E1F7682B90E080E049E061
:10412000660F771F881F991F4A95D1F70E946C0D63
:1041300080936D0080916D00811180C08A2D8F71F8
:104140008093F201E82FF0E0E75AFD4FF0828F31C3
:1041500009F074C00091A4021091A502812C85E0A1
:104160000115110509F458C0F801818180FFDDC0F7
:1041700086FD0AC086899789A08DB18D88279E7F8C
:10418000868B978BA08FB18FF801828D938DA48D34
:10419000B58D46895789608D718D841B950BA60B53
:1041A000B70B80329105A105B10520F080E290E0C7
:1041B000A0E0B0E07C01912C812C29E532E03A8727
:1041C0002987E114F10409F4B3C0F80186899789BD
:1041D000A08DB18D9C013170232B09F066C07280D7
:1041E0007A94AC01BD0129E076956795579547957E
:1041F0002A95D1F77422A9F5892B8A2B8B2B31F5BF
:10420000668D778D80A191A1F801623071058105DD
:10421000910518F5118281E08092F10180936D0083
:10422000FFE1F81508F486C083E180936D002FEF5D
:10423000A21621E0B20610F0D0927900FFEFAF1A7B
:10424000BF0AB092F901A092F80185CE62A173A1D4
:1042500084A195A10E942C0CD7CF62A373A384A341
:1042600095A3F80162A173A184A195A10E94A10860
:10427000611571058105910511F4F801CBCFAB01F2
:10428000BC01470D511D611D711DF80146A357A3C7
:1042900060A771A790E080E00E944716F801892B83
:1042A00009F0B8CF818180648183F801868997897C
:1042B000917020E032E0281B390B37012E153F05A5
:1042C00008F439011301512C412CB201A301898555
:1042D0009A850E944716F801892B09F09BCF8689A1
:1042E0009789A08DB18D820D931DA41DB51D868B60
:1042F000978BA08FB18F29853A85260D371D3A8778
:104300002987E618F708860C971C1C0131E0332238
:10431000232809F056CF0E941C09F801892B09F0C7
:1043200079CF81818F7B81834CCF812C84E074CFC6
:1043300080E072CF3FEFA31631E0B30608F47ECFE2
:1043400081117ACF85E00115110569F0F8018181AD
:1043500080FF14C086FF0CC00E941C09892B41F00D
:10436000F801118281E01092F10180936D0064CF19
:10437000F80181818F7B818380E0F5CF84E0F3CFEA
:1043800021E0F21671F0F21628F032E0F312E3CDDC
:1043900060E008C061E08CE00E94420660E08BE0D3
:1043A000D8CD61E08CE00E94420661E0F8CF8F2D0D
:1043B00081708093F001F1FAFF24F0F8F092EF01A0
:1043C000CACDFF2009F4C7CDF0926C00C4CD8F2D6B
:1043D00081708093EE01BFCD8091F701882309F4AD
:1043E000BACD81E08093ED0111E0F11010E010935F
:1043F000EC0180E20E949A0482E190E00E94E807CA
:10440000110F012F0560802F90E00E94E8070E94A5
:10441000450480E20E949A0490E080E00E94E80750
:1044200088EF90E00E94E8070E94450480E20E9425
:104430009A0481E090E00E94E80790E080E00E940A
:10444000E8070E94450480E20E949A048CE090E014
:104450000E94E8078FEF90E00E94E8070E94450461
:1044600080E20E949A0482E190E00E94E807612FB6
:10447000616083E493E00E94B9070E9445040093C1
:10448000F20180E20E949A0482E190E00E94E80733
:10449000602F82CD8091ED01882309F45CCD80E20C
:1044A0000E949A0483E190E00E94E8076F2D83E464
:1044B00093E00E94B9070E9445041091EC01110F8E
:1044C00080E20E949A0482E190E00E94E807612F56
:1044D0006C6F83E493E00E94B9070E9445041D6F4E
:1044E0001093F20180E20E949A0482E190E00E941F
:1044F000E807612F51CDF0FE2ECD40E061E08BE565
:1045000093E00E941D0880ED97E00E94D60623CD1F
:104510000091F8011091F9010115110549F4F0928B
:10452000EB010F5F1F4F1093F9010093F80113CDBA
:104530006091EB0188E0E0E8F0E0DE011196019087
:104540000D928A95E1F7809164038F1518F4FF248A
:10455000FA94F80EEF2DF0E0EE0FFF1F41E050E06F
:104560004C0F5D1FE40FF51F8081680F606840E00D
:104570008BE593E00E941D08D0927900D2CF6F2D79
:104580008BE593E00E943408E6CC8091F80190918D
:10459000F901FC01E652FE4F8031910511F0F11056
:1045A0000AC010826AED71E08BE593E00E9411125F
:1045B000D0927900D0CC01969093F9018093F801C4
:1045C000F082C9CC84E10E941906892B09F0C1C18F
:1045D00082E10E9419061092FA01882309F479C039
:1045E000D092FA0186EA92E00E943F051816190659
:1045F0000CF06BC086EA92E00E941D058093FA01E0
:104600001092D90161E081E00E9442068091D801B8
:104610008E7F8093D80181E080936B00FFEFFABB1F
:104620008091FA018BBB60E08EE00E94420660E060
:1046300080E00E94420682E090E00E94D6061ABA0C
:104640002FEF2BBB61E080E00E94420661E08EE02C
:104650000E9442068091EF01882379F10E94E106D1
:104660000091D1011091D2012091D3013091D40158
:104670004B015C01801A910AA20AB30A20916C00D6
:1046800030E0A8EEB3E00E945F25681579058A0541
:104690009B0598F460E081E00E9442068091D80179
:1046A00082608093D8010E94E1066093D1017093EB
:1046B000D2018093D3019093D4010E944B058823AB
:1046C00009F4F2CB0E948F10EFCB81E08093D901E7
:1046D00099CFE0917900E058EB3058F5F0E0ED58D3
:1046E000FC4D0C949C257E23A223BD23C723EA23E3
:1046F000262429247E24812486248D248DE00E9472
:104700001906182F8093F20162E08DE00E949A064C
:104710008DE00E94190621E0892B09F020E020930A
:10472000FA0161E08DE00E949A06612F8DE00E94FF
:104730004206809179008D7F843809F46FCFD09242
:1047400079006CCF8091F701882399F380E20E9471
:104750009A0482E190E00E94E8070E94450480E20A
:104760000E949A0461E070E080E290E00E94B01044
:104770000E94B7048093FA01DCCF8091F70188236F
:10478000C1F280E20E949A0483E190E0E4CF0091BC
:10479000D70110E0000F111FF090D60186EA92E0D9
:1047A0000E943F0534E0181619060CF030E08091A5
:1047B000D90128E0811101C020E08091EE0150E193
:1047C000859FC0011124082B0F29032B022B009376
:1047D000FA01AFCF8091D7018823A9F10091F801A8
:1047E0001091F9010115110569F40E94F4108091EE
:1047F00027028093FA010F5F1F4F1093F901009376
:10480000F80197CF07301105F0F4809101020430D0
:10481000110579F368F4809125020230110549F3FE
:10482000809102020330110521F380912602E1CF2D
:104830008091000205301105E1F28091FF01063000
:104840001105B9F2F2CFD092790073CF80916D004B
:1048500091CF0091F8011091F9010115110519F599
:104860006091F4017091F501611582E07807D8F448
:104870008091F3018032B8F490916D00911113C0D2
:1048800095E0660F771F9A95E1F7682B90E080E03E
:1048900029E0660F771F881F991F2A95D1F70E947C
:1048A0006C0D80936D0080916D0081111DC0902F63
:1048B0009F71F92E9093F20191110FC0CE010196D4
:1048C0000E949C0C99819093D5019032A8F080931E
:1048D0006D0080916D00811107C0EF2DF0E0E75A67
:1048E000FD4F80818093FA010F3FE1E01E0708F43D
:1048F00082CFD09279007FCF83E1E9CF0E944E0A28
:1049000039CF86EA92E00E940E0534CF8091D8011B
:104910008093FA011092D8010CCF8091ED01882389
:1049200009F407CF80E20E949A0482E190E00E949D
:10493000E8070E94450480E20E949A0461E070E06A
:1049400080E290E00E94B0100E94B704887F8160EE
:1049500011CF61E081E00E944206C0CA8CED8093D5
:10496000CD018AE090E00E94CB138093CD010C949E
:10497000271B1091F2010C94F31C6DE086EA92E083
:104980000E9476050C949E1B8FE493E00E9409130D
:1049900085E593E00C9409131F93FC019927882760
:1049A000BC01E89411911032E9F3193010F01E3077
:1049B000C8F31B3251F01D3249F4689406C00E94BE
:1049C000F324610F711D811D911D119110531A3037
:1049D000B0F33EF490958095709561957F4F8F4F21
:1049E0009F4F1F910895592F482F372F262F660F5D
:1049F000771F881F991F660F771F881F991F620FE7
:104A0000731F841F951F660F771F881F991F0895B6
:104A1000E199FECF9FBB8EBBE09A99278DB3089595
:104A2000262FE199FECF9FBB8EBB2DBB0FB6F8940E
:104A3000E29AE19A0FBE019608950E945F25A59F14
:104A4000900DB49F900DA49F800D911D1124089589
:104A50002F923F924F925F926F927F928F929F928E
:104A6000AF92BF92CF92DF92EF92FF920F931F937C
:104A7000CF93DF93CDB7DEB7CA1BDB0B0FB6F8942D
:104A8000DEBF0FBECDBF09942A88398848885F846D
:104A90006E847D848C849B84AA84B984C884DF80DE
:104AA000EE80FD800C811B81AA81B981CE0FD11DC2
:104AB0000FB6F894DEBF0FBECDBFED010895A29FE3
:104AC000B001B39FC001A39F700D811D1124911DE2
:104AD000B29F700D811D1124911D0895991B79E0DD
:104AE00004C0991F961708F0961B881F7A95C9F77E
:104AF00080950895A1E21A2EAA1BBB1BFD010DC0D3
:104B0000AA1FBB1FEE1FFF1FA217B307E407F5077D
:104B100020F0A21BB30BE40BF50B661F771F881F59
:104B2000991F1A9469F760957095809590959B01EF
:104B3000AC01BD01CF010895EE0FFF1F0590F49168
:104B4000E02D09940F931F93CF93DF93823091054B
:104B500010F482E090E0E0916903F0916A0330E0A4
:104B600020E0B0E0A0E0309799F42115310509F478
:104B70004AC0281B390B24303105D8F58A819B8126
:104B80006115710589F1FB0193838283FE0111C0D8
:104B9000408151810281138148175907E0F048177D
:104BA000590799F4109761F012960C931297139687
:104BB0001C933296CF01DF91CF911F910F910895F1
:104BC0000093690310936A03F4CF2115310551F066
:104BD0004217530738F0A901DB019A01BD01DF013B
:104BE000F801C1CFEF01F9CF90936A038093690375
:104BF000CDCFFE01E20FF31F819391932250310933
:104C000039832883D7CF2091670330916803232B02
:104C100041F420917C0030917D0030936803209313
:104C2000670320917A0030917B002115310541F412
:104C30002DB73EB740917E0050917F00241B350B6D
:104C4000E0916703F0916803E217F307A0F42E1BCD
:104C50003F0B2817390778F0AC014E5F5F4F2417E0
:104C6000350748F04E0F5F1F50936803409367036A
:104C7000819391939FCFF0E0E0E09CCFCF93DF93BF
:104C80000097E9F0FC01329713821282A091690328
:104C9000B0916A03ED0130E020E01097A1F420818B
:104CA0003181820F931F2091670330916803281789
:104CB000390709F061C0F0936803E0936703DF915F
:104CC000CF910895EA01CE17DF07E8F54A815B81AD
:104CD0009E0141155105B1F7E901FB83EA83499132
:104CE0005991C40FD51FEC17FD0761F480819181A4
:104CF0000296840F951FE9019983888382819381AD
:104D00009B838A83F0E0E0E012968D919C9113974B
:104D10000097B9F52D913C911197CD010296820F24
:104D2000931F20916703309168032817390739F6DC
:104D3000309751F510926A0310926903B09368039B
:104D4000A0936703BCCFD383C28340815181840F7A
:104D5000951FC817D90761F44E5F5F4F888199810D
:104D6000480F591F518340838A819B81938382839B
:104D70002115310509F0B0CFF0936A03E093690380
:104D80009ECFFD01DC01C0CF13821282D7CFB0E0ED
:104D9000A0E0EDECF6E20C942A258C01009751F48A
:104DA000CB010E94A2258C01C801CDB7DEB7E0E19E
:104DB0000C944625FC01E60FF71F9C012250310997
:104DC000E217F30708F49DC0D901CD91DC9111974A
:104DD000C617D70798F0C530D10530F3CE01049738
:104DE0008617970708F3C61BD70B2297C193D19359
:104DF0006D937C93CF010E943E26D6CF5B01AC1A07
:104E0000BD0A4C018C0E9D1EA0916903B0916A03EE
:104E1000512C412CF12CE12C109731F58091670336
:104E2000909168038815990509F05CC046165706ED
:104E300008F058C080917A0090917B00009741F46F
:104E40008DB79EB740917E0050917F00841B950BDB
:104E5000E817F90708F055C0F0936803E09367037B
:104E6000F90171836083A0CF8D919C911197129667
:104E70006C90129713967C901397A815B90559F565
:104E80006C0142E0C40ED11CCA14DB0420F1AC0159
:104E90004A195B09DA011296159780F062827382D3
:104EA00051834083D9016D937C93E114F10471F037
:104EB000D7011396FC93EE93129776CF22968C0F20
:104EC0009D1FF90191838083F301EFCFF0936A0373
:104ED000E093690369CF4816590608F42C017D0157
:104EE000D3019ACFCB010E94A2257C01009749F003
:104EF000AE01B8010E948427C8010E943E268701A6
:104F000053CF10E000E050CFFB01DC0102C0019064
:104F10000D9241505040D8F70895FB01DC010190FB
:104F20000D920020E1F7089514E0CAE1D4E004C036
:104F3000FE010E949C252196CB31D107C9F7F89438
:104F4000FFCF4453784E414D2E4441540001641329
:104F50004453784E79792E44534B00FF00006B0385
:104F6000800000004000140054001F1C1F1E1F1E64
:104F70001F1F1E1F1E1F5802B0046009C01280258B
:104F8000004B8070009600E1000000007605E1040F
:104F90000E05DD053F051D05310500000000B907C0
:104FA0008C079E0875078507A4047607000000009B
:104FB0003408E1049E0845070D0A00202800290056
:104FC0004469736B20536574200030002F003A0051
:104FD00030383A33323A3237004175672020392071
:104FE00032303235003400380043004F4E00424129
:104FF00053494334372E42494E00464F52544831AC
:10500000332E42494E0043504D32322E42494E001B
:1050100051504D4C44522E42494E0043504D4C4449
:10502000522E434F4D00554353444C44522E424957
:105030004E00434F532E42494E0046555A49582E72
:1050400042494E004155544F424F4F542E42494E13
:0250500000005E
:107E800011248FE598E09EBF8DBF24B614BE80E01C
:107E900071D021FEDDC08EE06DD0AFE7BFEF8099DD
:107EA000FECF9096809BFDCFB9B91197F1F782E094
:107EB0008BB988E18AB94FD0C82F823569F45ED07A
:107EC000E0E0FEE7A89583E08BD089D0E058F10987
:107ED000C8F78AE33CD0EFCF8D7FD9F446D0D82FB6
:107EE000A0E0B1E038D08D93DA13FCCFA0E0B1E090
:107EF00045D0C1110CC0FFBBEEBB8D918DBBE29A8A
:107F0000E19A3196E199FECFD150A9F7E2CF40D066
:107F1000E0CFC33041F429D0C82F30D0859117D09D
:107F2000C150E1F7D6CFC13061F41FD0C82F26D0A1
:107F3000FFBBEEBBE09A8DB30AD03196C150C1F7BA
:107F4000C8CFC13511F488E015D018D0C2CF5D9BE1
:107F5000FECF8CB90895C09AB89A5F9BFECF5C990A
:107F600010C0A8958CB1C0980895F5DFE82FF3DF15
:107F7000F82FF1CF98E191BD81BD0895ECDF8032FB
:107F800019F088E0F7DFFFCF80EAE1CFFB01DC01E9
:107F9000E07870E87A0F9F01E0388EE7F80728F55F
:107FA000309629F48FE38D938FEC8C93119790E0AA
:107FB00045915D9145139160A713FACFF901A0583F
:107FC000B10990FF12C083E00BD081E00D901D90AD
:107FD00007D03296A713FACFF90185E001D081E1ED
:0E7FE00087BFE89517B610FCFDCF1124089559
:067FFA000314C7CFE740AD
:00000001FF
